{
  "_format": "hh-sol-artifact-1",
  "contractName": "DocumentVerifier",
  "sourceName": "contracts/DocumentVerifier.sol",
  "abi": [
    {
      "anonymous": false,
      "inputs": [
        {
          "indexed": true,
          "internalType": "address",
          "name": "submitter",
          "type": "address"
        },
        {
          "indexed": true,
          "internalType": "bytes32",
          "name": "documentHash",
          "type": "bytes32"
        },
        {
          "indexed": false,
          "internalType": "uint256",
          "name": "timestamp",
          "type": "uint256"
        }
      ],
      "name": "DocumentRegistered",
      "type": "event"
    },
    {
      "inputs": [
        {
          "internalType": "bytes32",
          "name": "",
          "type": "bytes32"
        }
      ],
      "name": "documents",
      "outputs": [
        {
          "internalType": "address",
          "name": "",
          "type": "address"
        }
      ],
      "stateMutability": "view",
      "type": "function"
    },
    {
      "inputs": [
        {
          "internalType": "bytes32",
          "name": "documentHash",
          "type": "bytes32"
        }
      ],
      "name": "registerDocument",
      "outputs": [],
      "stateMutability": "nonpayable",
      "type": "function"
    },
    {
      "inputs": [
        {
          "internalType": "bytes32",
          "name": "documentHash",
          "type": "bytes32"
        }
      ],
      "name": "verifyDocument",
      "outputs": [
        {
          "internalType": "address",
          "name": "submitter",
          "type": "address"
        }
      ],
      "stateMutability": "view",
      "type": "function"
    }
  ],
  "bytecode": "0x6080604052348015600f57600080fd5b506104208061001f6000396000f3fe608060405234801561001057600080fd5b50600436106100415760003560e01c80632b2805db146100465780639b13197414610076578063fe35089f14610092575b600080fd5b610060600480360381019061005b91906102b0565b6100c2565b60405161006d919061031e565b60405180910390f35b610090600480360381019061008b91906102b0565b6100f5565b005b6100ac60048036038101906100a791906102b0565b610239565b6040516100b9919061031e565b60405180910390f35b60006020528060005260406000206000915054906101000a900473ffffffffffffffffffffffffffffffffffffffff1681565b600073ffffffffffffffffffffffffffffffffffffffff1660008083815260200190815260200160002060009054906101000a900473ffffffffffffffffffffffffffffffffffffffff1673ffffffffffffffffffffffffffffffffffffffff1614610196576040517f08c379a000000000000000000000000000000000000000000000000000000000815260040161018d90610396565b60405180910390fd5b3360008083815260200190815260200160002060006101000a81548173ffffffffffffffffffffffffffffffffffffffff021916908373ffffffffffffffffffffffffffffffffffffffff160217905550803373ffffffffffffffffffffffffffffffffffffffff167f0559ae90d56934a4645873d8c059d7dbb9785680854676c1c924a5469076d02f4260405161022e91906103cf565b60405180910390a350565b600080600083815260200190815260200160002060009054906101000a900473ffffffffffffffffffffffffffffffffffffffff169050919050565b600080fd5b6000819050919050565b61028d8161027a565b811461029857600080fd5b50565b6000813590506102aa81610284565b92915050565b6000602082840312156102c6576102c5610275565b5b60006102d48482850161029b565b91505092915050565b600073ffffffffffffffffffffffffffffffffffffffff82169050919050565b6000610308826102dd565b9050919050565b610318816102fd565b82525050565b6000602082019050610333600083018461030f565b92915050565b600082825260208201905092915050565b7f446f63756d656e7420616c726561647920726567697374657265640000000000600082015250565b6000610380601b83610339565b915061038b8261034a565b602082019050919050565b600060208201905081810360008301526103af81610373565b9050919050565b6000819050919050565b6103c9816103b6565b82525050565b60006020820190506103e460008301846103c0565b9291505056fea26469706673582212201abe937f933f3cb74f4e6a0c713baa17a3261ec8d1d1cf4e2841320ea0e3793964736f6c634300081c0033",
  "linkReferences": {},
  "deployedLinkReferences": {}
}